{
  "_format": "hh-sol-artifact-1",
  "contractName": "base",
  "sourceName": "contracts/base.sol",
  "abi": [
    {
      "inputs": [
        {
          "internalType": "uint256",
          "name": "h",
          "type": "uint256"
        }
      ],
      "stateMutability": "nonpayable",
      "type": "constructor"
    },
    {
      "inputs": [],
      "name": "timesN",
      "outputs": [
        {
          "internalType": "uint256",
          "name": "",
          "type": "uint256"
        }
      ],
      "stateMutability": "view",
      "type": "function"
    }
  ],
  "bytecode": "0x608060405234801561001057600080fd5b5060405161017938038061017983398101604081905261002f91610037565b60005561004f565b600060208284031215610048578081fd5b5051919050565b61011b8061005e6000396000f3fe6080604052348015600f57600080fd5b506004361060285760003560e01c8063ae5a52ea14602d575b600080fd5b60336045565b60405190815260200160405180910390f35b600080546040516336b04a1b60e01b8152600481019190915273__$a804c6605ea1f8cfb4a4502c86a3b46a8d$__906336b04a1b9060240160206040518083038186803b158015609457600080fd5b505af415801560a7573d6000803e3d6000fd5b505050506040513d601f19601f8201168201806040525081019060c9919060ce565b905090565b60006020828403121560de578081fd5b505191905056fea2646970667358221220facbcc256870124be9c22aa5f2fa2fe072d7ae1d453492dfc706e70bb39e6b5764736f6c63430008020033",
  "linkReferences": {
    "contracts/libs/mul3.sol": {
      "mul3": [
        {
          "length": 20,
          "start": 190
        }
      ]
    }
  },
  "deployedLinkReferences": {
    "contracts/libs/mul3.sol": {
      "mul3": [
        {
          "length": 20,
          "start": 96
        }
      ]
    }
  }
}