{
  "_format": "hh-sol-artifact-1",
  "contractName": "mul3",
  "sourceName": "contracts/libs/mul5.sol",
  "abi": [
    {
      "inputs": [
        {
          "internalType": "uint256",
          "name": "n",
          "type": "uint256"
        }
      ],
      "name": "multiplyByThree",
      "outputs": [
        {
          "internalType": "uint256",
          "name": "",
          "type": "uint256"
        }
      ],
      "stateMutability": "pure",
      "type": "function"
    }
  ],
  "bytecode": "0x60e1610039600b82828239805160001a60731461002c57634e487b7160e01b600052600060045260246000fd5b30600052607381538281f3fe730000000000000000000000000000000000000000301460806040526004361060335760003560e01c806336b04a1b146038575b600080fd5b60476043366004606a565b6059565b60405190815260200160405180910390f35b600060648260056081565b92915050565b600060208284031215607a578081fd5b5035919050565b600081600019048311821515161560a657634e487b7160e01b81526011600452602481fd5b50029056fea2646970667358221220cfd0754aa718f7b9fe2fd3403f503fec88050948e1ac70522cd7647c936af20d64736f6c63430008020033",
  "linkReferences": {},
  "deployedLinkReferences": {}
}